{
  "address": "0xafB76B8DafB42278a331F3a797B1Bf463607490C",
  "abi": [
    {
      "inputs": [
        {
          "internalType": "string",
          "name": "_name",
          "type": "string"
        },
        {
          "internalType": "string",
          "name": "_symbol",
          "type": "string"
        },
        {
          "internalType": "uint8",
          "name": "_decimals",
          "type": "uint8"
        }
      ],
      "stateMutability": "nonpayable",
      "type": "constructor"
    },
    {
      "inputs": [
        {
          "internalType": "address",
          "name": "spender",
          "type": "address"
        },
        {
          "internalType": "uint256",
          "name": "allowance",
          "type": "uint256"
        },
        {
          "internalType": "uint256",
          "name": "needed",
          "type": "uint256"
        }
      ],
      "name": "ERC20InsufficientAllowance",
      "type": "error"
    },
    {
      "inputs": [
        {
          "internalType": "address",
          "name": "sender",
          "type": "address"
        },
        {
          "internalType": "uint256",
          "name": "balance",
          "type": "uint256"
        },
        {
          "internalType": "uint256",
          "name": "needed",
          "type": "uint256"
        }
      ],
      "name": "ERC20InsufficientBalance",
      "type": "error"
    },
    {
      "inputs": [
        {
          "internalType": "address",
          "name": "approver",
          "type": "address"
        }
      ],
      "name": "ERC20InvalidApprover",
      "type": "error"
    },
    {
      "inputs": [
        {
          "internalType": "address",
          "name": "receiver",
          "type": "address"
        }
      ],
      "name": "ERC20InvalidReceiver",
      "type": "error"
    },
    {
      "inputs": [
        {
          "internalType": "address",
          "name": "sender",
          "type": "address"
        }
      ],
      "name": "ERC20InvalidSender",
      "type": "error"
    },
    {
      "inputs": [
        {
          "internalType": "address",
          "name": "spender",
          "type": "address"
        }
      ],
      "name": "ERC20InvalidSpender",
      "type": "error"
    },
    {
      "anonymous": false,
      "inputs": [
        {
          "indexed": true,
          "internalType": "address",
          "name": "owner",
          "type": "address"
        },
        {
          "indexed": true,
          "internalType": "address",
          "name": "spender",
          "type": "address"
        },
        {
          "indexed": false,
          "internalType": "uint256",
          "name": "value",
          "type": "uint256"
        }
      ],
      "name": "Approval",
      "type": "event"
    },
    {
      "anonymous": false,
      "inputs": [
        {
          "indexed": true,
          "internalType": "address",
          "name": "from",
          "type": "address"
        },
        {
          "indexed": true,
          "internalType": "address",
          "name": "to",
          "type": "address"
        },
        {
          "indexed": false,
          "internalType": "uint256",
          "name": "value",
          "type": "uint256"
        }
      ],
      "name": "Transfer",
      "type": "event"
    },
    {
      "inputs": [],
      "name": "DECIMALS",
      "outputs": [
        {
          "internalType": "uint8",
          "name": "",
          "type": "uint8"
        }
      ],
      "stateMutability": "view",
      "type": "function"
    },
    {
      "inputs": [
        {
          "internalType": "address",
          "name": "owner",
          "type": "address"
        },
        {
          "internalType": "address",
          "name": "spender",
          "type": "address"
        }
      ],
      "name": "allowance",
      "outputs": [
        {
          "internalType": "uint256",
          "name": "",
          "type": "uint256"
        }
      ],
      "stateMutability": "view",
      "type": "function"
    },
    {
      "inputs": [
        {
          "internalType": "address",
          "name": "spender",
          "type": "address"
        },
        {
          "internalType": "uint256",
          "name": "value",
          "type": "uint256"
        }
      ],
      "name": "approve",
      "outputs": [
        {
          "internalType": "bool",
          "name": "",
          "type": "bool"
        }
      ],
      "stateMutability": "nonpayable",
      "type": "function"
    },
    {
      "inputs": [
        {
          "internalType": "address",
          "name": "account",
          "type": "address"
        }
      ],
      "name": "balanceOf",
      "outputs": [
        {
          "internalType": "uint256",
          "name": "",
          "type": "uint256"
        }
      ],
      "stateMutability": "view",
      "type": "function"
    },
    {
      "inputs": [],
      "name": "decimals",
      "outputs": [
        {
          "internalType": "uint8",
          "name": "",
          "type": "uint8"
        }
      ],
      "stateMutability": "view",
      "type": "function"
    },
    {
      "inputs": [
        {
          "internalType": "address",
          "name": "to",
          "type": "address"
        },
        {
          "internalType": "uint256",
          "name": "amount",
          "type": "uint256"
        }
      ],
      "name": "mint",
      "outputs": [],
      "stateMutability": "nonpayable",
      "type": "function"
    },
    {
      "inputs": [],
      "name": "name",
      "outputs": [
        {
          "internalType": "string",
          "name": "",
          "type": "string"
        }
      ],
      "stateMutability": "view",
      "type": "function"
    },
    {
      "inputs": [],
      "name": "symbol",
      "outputs": [
        {
          "internalType": "string",
          "name": "",
          "type": "string"
        }
      ],
      "stateMutability": "view",
      "type": "function"
    },
    {
      "inputs": [],
      "name": "totalSupply",
      "outputs": [
        {
          "internalType": "uint256",
          "name": "",
          "type": "uint256"
        }
      ],
      "stateMutability": "view",
      "type": "function"
    },
    {
      "inputs": [
        {
          "internalType": "address",
          "name": "to",
          "type": "address"
        },
        {
          "internalType": "uint256",
          "name": "value",
          "type": "uint256"
        }
      ],
      "name": "transfer",
      "outputs": [
        {
          "internalType": "bool",
          "name": "",
          "type": "bool"
        }
      ],
      "stateMutability": "nonpayable",
      "type": "function"
    },
    {
      "inputs": [
        {
          "internalType": "address",
          "name": "from",
          "type": "address"
        },
        {
          "internalType": "address",
          "name": "to",
          "type": "address"
        },
        {
          "internalType": "uint256",
          "name": "value",
          "type": "uint256"
        }
      ],
      "name": "transferFrom",
      "outputs": [
        {
          "internalType": "bool",
          "name": "",
          "type": "bool"
        }
      ],
      "stateMutability": "nonpayable",
      "type": "function"
    }
  ],
  "transactionHash": "0x87eadfdf40eb59e0d01acc866a42d9557d5a5db98e01d2873da1ea7832fc4a96",
  "args": [
    "Mock Degen",
    "mDEGEN",
    18
  ],
  "numDeployments": 1,
  "solcInputHash": "2ec11162db5b796ae9d81caefb6d1d66",
  "bytecode": "0x60a06040523480156200001157600080fd5b5060405162000b0a38038062000b0a83398101604081905262000034916200012d565b8282600362000044838262000243565b50600462000053828262000243565b50505060ff16608052506200030f9050565b634e487b7160e01b600052604160045260246000fd5b600082601f8301126200008d57600080fd5b81516001600160401b0380821115620000aa57620000aa62000065565b604051601f8301601f19908116603f01168101908282118183101715620000d557620000d562000065565b8160405283815260209250866020858801011115620000f357600080fd5b600091505b83821015620001175785820183015181830184015290820190620000f8565b6000602085830101528094505050505092915050565b6000806000606084860312156200014357600080fd5b83516001600160401b03808211156200015b57600080fd5b62000169878388016200007b565b945060208601519150808211156200018057600080fd5b506200018f868287016200007b565b925050604084015160ff81168114620001a757600080fd5b809150509250925092565b600181811c90821680620001c757607f821691505b602082108103620001e857634e487b7160e01b600052602260045260246000fd5b50919050565b601f8211156200023e576000816000526020600020601f850160051c81016020861015620002195750805b601f850160051c820191505b818110156200023a5782815560010162000225565b5050505b505050565b81516001600160401b038111156200025f576200025f62000065565b6200027781620002708454620001b2565b84620001ee565b602080601f831160018114620002af5760008415620002965750858301515b600019600386901b1c1916600185901b1785556200023a565b600085815260208120601f198616915b82811015620002e057888601518255948401946001909101908401620002bf565b5085821015620002ff5787850151600019600388901b60f8161c191681555b5050505050600190811b01905550565b6080516107d86200033260003960008181610139015261016f01526107d86000f3fe608060405234801561001057600080fd5b50600436106100c95760003560e01c8063313ce5671161008157806395d89b411161005b57806395d89b41146101d1578063a9059cbb146101d9578063dd62ed3e146101ec57600080fd5b8063313ce5671461016d57806340c10f191461019357806370a08231146101a857600080fd5b806318160ddd116100b257806318160ddd1461010f57806323b872dd146101215780632e0f26251461013457600080fd5b806306fdde03146100ce578063095ea7b3146100ec575b600080fd5b6100d6610225565b6040516100e3919061064a565b60405180910390f35b6100ff6100fa3660046106b5565b6102b7565b60405190151581526020016100e3565b6002545b6040519081526020016100e3565b6100ff61012f3660046106df565b6102d1565b61015b7f000000000000000000000000000000000000000000000000000000000000000081565b60405160ff90911681526020016100e3565b7f000000000000000000000000000000000000000000000000000000000000000061015b565b6101a66101a13660046106b5565b6102f5565b005b6101136101b636600461071b565b6001600160a01b031660009081526020819052604090205490565b6100d6610303565b6100ff6101e73660046106b5565b610312565b6101136101fa36600461073d565b6001600160a01b03918216600090815260016020908152604080832093909416825291909152205490565b60606003805461023490610770565b80601f016020809104026020016040519081016040528092919081815260200182805461026090610770565b80156102ad5780601f10610282576101008083540402835291602001916102ad565b820191906000526020600020905b81548152906001019060200180831161029057829003601f168201915b5050505050905090565b6000336102c5818585610320565b60019150505b92915050565b6000336102df858285610332565b6102ea8585856103b6565b506001949350505050565b6102ff8282610415565b5050565b60606004805461023490610770565b6000336102c58185856103b6565b61032d838383600161044b565b505050565b6001600160a01b038381166000908152600160209081526040808320938616835292905220546000198110156103b057818110156103a157604051637dc7a0d960e11b81526001600160a01b038416600482015260248101829052604481018390526064015b60405180910390fd5b6103b08484848403600061044b565b50505050565b6001600160a01b0383166103e057604051634b637e8f60e11b815260006004820152602401610398565b6001600160a01b03821661040a5760405163ec442f0560e01b815260006004820152602401610398565b61032d838383610520565b6001600160a01b03821661043f5760405163ec442f0560e01b815260006004820152602401610398565b6102ff60008383610520565b6001600160a01b0384166104755760405163e602df0560e01b815260006004820152602401610398565b6001600160a01b03831661049f57604051634a1406b160e11b815260006004820152602401610398565b6001600160a01b03808516600090815260016020908152604080832093871683529290522082905580156103b057826001600160a01b0316846001600160a01b03167f8c5be1e5ebec7d5bd14f71427d1e84f3dd0314c0f7b2291e5b200ac8c7c3b9258460405161051291815260200190565b60405180910390a350505050565b6001600160a01b03831661054b57806002600082825461054091906107aa565b909155506105bd9050565b6001600160a01b0383166000908152602081905260409020548181101561059e5760405163391434e360e21b81526001600160a01b03851660048201526024810182905260448101839052606401610398565b6001600160a01b03841660009081526020819052604090209082900390555b6001600160a01b0382166105d9576002805482900390556105f8565b6001600160a01b03821660009081526020819052604090208054820190555b816001600160a01b0316836001600160a01b03167fddf252ad1be2c89b69c2b068fc378daa952ba7f163c4a11628f55a4df523b3ef8360405161063d91815260200190565b60405180910390a3505050565b60006020808352835180602085015260005b818110156106785785810183015185820160400152820161065c565b506000604082860101526040601f19601f8301168501019250505092915050565b80356001600160a01b03811681146106b057600080fd5b919050565b600080604083850312156106c857600080fd5b6106d183610699565b946020939093013593505050565b6000806000606084860312156106f457600080fd5b6106fd84610699565b925061070b60208501610699565b9150604084013590509250925092565b60006020828403121561072d57600080fd5b61073682610699565b9392505050565b6000806040838503121561075057600080fd5b61075983610699565b915061076760208401610699565b90509250929050565b600181811c9082168061078457607f821691505b6020821081036107a457634e487b7160e01b600052602260045260246000fd5b50919050565b808201808211156102cb57634e487b7160e01b600052601160045260246000fdfea164736f6c6343000816000a",
  "devdoc": {
    "errors": {
      "ERC20InsufficientAllowance(address,uint256,uint256)": [
        {
          "details": "Indicates a failure with the `spender`s `allowance`. Used in transfers.",
          "params": {
            "allowance": "Amount of tokens a `spender` is allowed to operate with.",
            "needed": "Minimum amount required to perform a transfer.",
            "spender": "Address that may be allowed to operate on tokens without being their owner."
          }
        }
      ],
      "ERC20InsufficientBalance(address,uint256,uint256)": [
        {
          "details": "Indicates an error related to the current `balance` of a `sender`. Used in transfers.",
          "params": {
            "balance": "Current balance for the interacting account.",
            "needed": "Minimum amount required to perform a transfer.",
            "sender": "Address whose tokens are being transferred."
          }
        }
      ],
      "ERC20InvalidApprover(address)": [
        {
          "details": "Indicates a failure with the `approver` of a token to be approved. Used in approvals.",
          "params": {
            "approver": "Address initiating an approval operation."
          }
        }
      ],
      "ERC20InvalidReceiver(address)": [
        {
          "details": "Indicates a failure with the token `receiver`. Used in transfers.",
          "params": {
            "receiver": "Address to which tokens are being transferred."
          }
        }
      ],
      "ERC20InvalidSender(address)": [
        {
          "details": "Indicates a failure with the token `sender`. Used in transfers.",
          "params": {
            "sender": "Address whose tokens are being transferred."
          }
        }
      ],
      "ERC20InvalidSpender(address)": [
        {
          "details": "Indicates a failure with the `spender` to be approved. Used in approvals.",
          "params": {
            "spender": "Address that may be allowed to operate on tokens without being their owner."
          }
        }
      ]
    },
    "events": {
      "Approval(address,address,uint256)": {
        "details": "Emitted when the allowance of a `spender` for an `owner` is set by a call to {approve}. `value` is the new allowance."
      },
      "Transfer(address,address,uint256)": {
        "details": "Emitted when `value` tokens are moved from one account (`from`) to another (`to`). Note that `value` may be zero."
      }
    },
    "kind": "dev",
    "methods": {
      "allowance(address,address)": {
        "details": "See {IERC20-allowance}."
      },
      "approve(address,uint256)": {
        "details": "See {IERC20-approve}. NOTE: If `value` is the maximum `uint256`, the allowance is not updated on `transferFrom`. This is semantically equivalent to an infinite approval. Requirements: - `spender` cannot be the zero address."
      },
      "balanceOf(address)": {
        "details": "See {IERC20-balanceOf}."
      },
      "decimals()": {
        "details": "Returns the number of decimals used to get its user representation. For example, if `decimals` equals `2`, a balance of `505` tokens should be displayed to a user as `5.05` (`505 / 10 ** 2`). Tokens usually opt for a value of 18, imitating the relationship between Ether and Wei. This is the default value returned by this function, unless it's overridden. NOTE: This information is only used for _display_ purposes: it in no way affects any of the arithmetic of the contract, including {IERC20-balanceOf} and {IERC20-transfer}."
      },
      "name()": {
        "details": "Returns the name of the token."
      },
      "symbol()": {
        "details": "Returns the symbol of the token, usually a shorter version of the name."
      },
      "totalSupply()": {
        "details": "See {IERC20-totalSupply}."
      },
      "transfer(address,uint256)": {
        "details": "See {IERC20-transfer}. Requirements: - `to` cannot be the zero address. - the caller must have a balance of at least `value`."
      },
      "transferFrom(address,address,uint256)": {
        "details": "See {IERC20-transferFrom}. Skips emitting an {Approval} event indicating an allowance update. This is not required by the ERC. See {xref-ERC20-_approve-address-address-uint256-bool-}[_approve]. NOTE: Does not update the allowance if the current allowance is the maximum `uint256`. Requirements: - `from` and `to` cannot be the zero address. - `from` must have a balance of at least `value`. - the caller must have allowance for ``from``'s tokens of at least `value`."
      }
    },
    "version": 1
  },
  "userdoc": {
    "kind": "user",
    "methods": {},
    "version": 1
  },
  "storageLayout": {
    "storage": [
      {
        "astId": 2475,
        "contract": "contracts/mocks/MockERC20.sol:MockERC20",
        "label": "_balances",
        "offset": 0,
        "slot": "0",
        "type": "t_mapping(t_address,t_uint256)"
      },
      {
        "astId": 2481,
        "contract": "contracts/mocks/MockERC20.sol:MockERC20",
        "label": "_allowances",
        "offset": 0,
        "slot": "1",
        "type": "t_mapping(t_address,t_mapping(t_address,t_uint256))"
      },
      {
        "astId": 2483,
        "contract": "contracts/mocks/MockERC20.sol:MockERC20",
        "label": "_totalSupply",
        "offset": 0,
        "slot": "2",
        "type": "t_uint256"
      },
      {
        "astId": 2485,
        "contract": "contracts/mocks/MockERC20.sol:MockERC20",
        "label": "_name",
        "offset": 0,
        "slot": "3",
        "type": "t_string_storage"
      },
      {
        "astId": 2487,
        "contract": "contracts/mocks/MockERC20.sol:MockERC20",
        "label": "_symbol",
        "offset": 0,
        "slot": "4",
        "type": "t_string_storage"
      }
    ],
    "types": {
      "t_address": {
        "encoding": "inplace",
        "label": "address",
        "numberOfBytes": "20"
      },
      "t_mapping(t_address,t_mapping(t_address,t_uint256))": {
        "encoding": "mapping",
        "key": "t_address",
        "label": "mapping(address => mapping(address => uint256))",
        "numberOfBytes": "32",
        "value": "t_mapping(t_address,t_uint256)"
      },
      "t_mapping(t_address,t_uint256)": {
        "encoding": "mapping",
        "key": "t_address",
        "label": "mapping(address => uint256)",
        "numberOfBytes": "32",
        "value": "t_uint256"
      },
      "t_string_storage": {
        "encoding": "bytes",
        "label": "string",
        "numberOfBytes": "32"
      },
      "t_uint256": {
        "encoding": "inplace",
        "label": "uint256",
        "numberOfBytes": "32"
      }
    }
  }
}